{
  "_format": "hh-sol-artifact-1",
  "contractName": "NFTMarketPlace",
  "sourceName": "contracts/NFTMarketplace.sol",
  "abi": [
    {
      "inputs": [],
      "stateMutability": "nonpayable",
      "type": "constructor"
    },
    {
      "anonymous": false,
      "inputs": [
        {
          "indexed": true,
          "internalType": "address",
          "name": "owner",
          "type": "address"
        },
        {
          "indexed": true,
          "internalType": "address",
          "name": "approved",
          "type": "address"
        },
        {
          "indexed": true,
          "internalType": "uint256",
          "name": "tokenId",
          "type": "uint256"
        }
      ],
      "name": "Approval",
      "type": "event"
    },
    {
      "anonymous": false,
      "inputs": [
        {
          "indexed": true,
          "internalType": "address",
          "name": "owner",
          "type": "address"
        },
        {
          "indexed": true,
          "internalType": "address",
          "name": "operator",
          "type": "address"
        },
        {
          "indexed": false,
          "internalType": "bool",
          "name": "approved",
          "type": "bool"
        }
      ],
      "name": "ApprovalForAll",
      "type": "event"
    },
    {
      "anonymous": false,
      "inputs": [
        {
          "indexed": true,
          "internalType": "address",
          "name": "from",
          "type": "address"
        },
        {
          "indexed": true,
          "internalType": "address",
          "name": "to",
          "type": "address"
        },
        {
          "indexed": true,
          "internalType": "uint256",
          "name": "tokenId",
          "type": "uint256"
        }
      ],
      "name": "Transfer",
      "type": "event"
    },
    {
      "anonymous": false,
      "inputs": [
        {
          "indexed": true,
          "internalType": "uint256",
          "name": "tokenId",
          "type": "uint256"
        },
        {
          "indexed": false,
          "internalType": "address",
          "name": "seller",
          "type": "address"
        },
        {
          "indexed": false,
          "internalType": "address",
          "name": "owner",
          "type": "address"
        },
        {
          "indexed": false,
          "internalType": "uint256",
          "name": "price",
          "type": "uint256"
        },
        {
          "indexed": false,
          "internalType": "bool",
          "name": "sold",
          "type": "bool"
        }
      ],
      "name": "idMarketItemCreated",
      "type": "event"
    },
    {
      "inputs": [
        {
          "internalType": "address",
          "name": "to",
          "type": "address"
        },
        {
          "internalType": "uint256",
          "name": "tokenId",
          "type": "uint256"
        }
      ],
      "name": "approve",
      "outputs": [],
      "stateMutability": "nonpayable",
      "type": "function"
    },
    {
      "inputs": [
        {
          "internalType": "address",
          "name": "owner",
          "type": "address"
        }
      ],
      "name": "balanceOf",
      "outputs": [
        {
          "internalType": "uint256",
          "name": "",
          "type": "uint256"
        }
      ],
      "stateMutability": "view",
      "type": "function"
    },
    {
      "inputs": [
        {
          "internalType": "uint256",
          "name": "tokenId",
          "type": "uint256"
        }
      ],
      "name": "createMarketSale",
      "outputs": [],
      "stateMutability": "payable",
      "type": "function"
    },
    {
      "inputs": [
        {
          "internalType": "string",
          "name": "tokenURI",
          "type": "string"
        },
        {
          "internalType": "uint256",
          "name": "price",
          "type": "uint256"
        }
      ],
      "name": "createToken",
      "outputs": [
        {
          "internalType": "uint256",
          "name": "",
          "type": "uint256"
        }
      ],
      "stateMutability": "payable",
      "type": "function"
    },
    {
      "inputs": [],
      "name": "fetchItemsListed",
      "outputs": [
        {
          "components": [
            {
              "internalType": "uint256",
              "name": "tokenId",
              "type": "uint256"
            },
            {
              "internalType": "address payable",
              "name": "seller",
              "type": "address"
            },
            {
              "internalType": "address payable",
              "name": "owner",
              "type": "address"
            },
            {
              "internalType": "uint256",
              "name": "price",
              "type": "uint256"
            },
            {
              "internalType": "bool",
              "name": "sold",
              "type": "bool"
            }
          ],
          "internalType": "struct NFTMarketPlace.MarketItem[]",
          "name": "",
          "type": "tuple[]"
        }
      ],
      "stateMutability": "view",
      "type": "function"
    },
    {
      "inputs": [],
      "name": "fetchMarketItem",
      "outputs": [
        {
          "components": [
            {
              "internalType": "uint256",
              "name": "tokenId",
              "type": "uint256"
            },
            {
              "internalType": "address payable",
              "name": "seller",
              "type": "address"
            },
            {
              "internalType": "address payable",
              "name": "owner",
              "type": "address"
            },
            {
              "internalType": "uint256",
              "name": "price",
              "type": "uint256"
            },
            {
              "internalType": "bool",
              "name": "sold",
              "type": "bool"
            }
          ],
          "internalType": "struct NFTMarketPlace.MarketItem[]",
          "name": "",
          "type": "tuple[]"
        }
      ],
      "stateMutability": "view",
      "type": "function"
    },
    {
      "inputs": [],
      "name": "fetchMyNFT",
      "outputs": [
        {
          "components": [
            {
              "internalType": "uint256",
              "name": "tokenId",
              "type": "uint256"
            },
            {
              "internalType": "address payable",
              "name": "seller",
              "type": "address"
            },
            {
              "internalType": "address payable",
              "name": "owner",
              "type": "address"
            },
            {
              "internalType": "uint256",
              "name": "price",
              "type": "uint256"
            },
            {
              "internalType": "bool",
              "name": "sold",
              "type": "bool"
            }
          ],
          "internalType": "struct NFTMarketPlace.MarketItem[]",
          "name": "",
          "type": "tuple[]"
        }
      ],
      "stateMutability": "view",
      "type": "function"
    },
    {
      "inputs": [
        {
          "internalType": "uint256",
          "name": "tokenId",
          "type": "uint256"
        }
      ],
      "name": "getApproved",
      "outputs": [
        {
          "internalType": "address",
          "name": "",
          "type": "address"
        }
      ],
      "stateMutability": "view",
      "type": "function"
    },
    {
      "inputs": [],
      "name": "getListingPrice",
      "outputs": [
        {
          "internalType": "uint256",
          "name": "",
          "type": "uint256"
        }
      ],
      "stateMutability": "view",
      "type": "function"
    },
    {
      "inputs": [
        {
          "internalType": "address",
          "name": "owner",
          "type": "address"
        },
        {
          "internalType": "address",
          "name": "operator",
          "type": "address"
        }
      ],
      "name": "isApprovedForAll",
      "outputs": [
        {
          "internalType": "bool",
          "name": "",
          "type": "bool"
        }
      ],
      "stateMutability": "view",
      "type": "function"
    },
    {
      "inputs": [],
      "name": "name",
      "outputs": [
        {
          "internalType": "string",
          "name": "",
          "type": "string"
        }
      ],
      "stateMutability": "view",
      "type": "function"
    },
    {
      "inputs": [
        {
          "internalType": "uint256",
          "name": "tokenId",
          "type": "uint256"
        }
      ],
      "name": "ownerOf",
      "outputs": [
        {
          "internalType": "address",
          "name": "",
          "type": "address"
        }
      ],
      "stateMutability": "view",
      "type": "function"
    },
    {
      "inputs": [
        {
          "internalType": "uint256",
          "name": "tokenId",
          "type": "uint256"
        },
        {
          "internalType": "uint256",
          "name": "price",
          "type": "uint256"
        }
      ],
      "name": "resellToken",
      "outputs": [],
      "stateMutability": "payable",
      "type": "function"
    },
    {
      "inputs": [
        {
          "internalType": "address",
          "name": "from",
          "type": "address"
        },
        {
          "internalType": "address",
          "name": "to",
          "type": "address"
        },
        {
          "internalType": "uint256",
          "name": "tokenId",
          "type": "uint256"
        }
      ],
      "name": "safeTransferFrom",
      "outputs": [],
      "stateMutability": "nonpayable",
      "type": "function"
    },
    {
      "inputs": [
        {
          "internalType": "address",
          "name": "from",
          "type": "address"
        },
        {
          "internalType": "address",
          "name": "to",
          "type": "address"
        },
        {
          "internalType": "uint256",
          "name": "tokenId",
          "type": "uint256"
        },
        {
          "internalType": "bytes",
          "name": "data",
          "type": "bytes"
        }
      ],
      "name": "safeTransferFrom",
      "outputs": [],
      "stateMutability": "nonpayable",
      "type": "function"
    },
    {
      "inputs": [
        {
          "internalType": "address",
          "name": "operator",
          "type": "address"
        },
        {
          "internalType": "bool",
          "name": "approved",
          "type": "bool"
        }
      ],
      "name": "setApprovalForAll",
      "outputs": [],
      "stateMutability": "nonpayable",
      "type": "function"
    },
    {
      "inputs": [
        {
          "internalType": "bytes4",
          "name": "interfaceId",
          "type": "bytes4"
        }
      ],
      "name": "supportsInterface",
      "outputs": [
        {
          "internalType": "bool",
          "name": "",
          "type": "bool"
        }
      ],
      "stateMutability": "view",
      "type": "function"
    },
    {
      "inputs": [],
      "name": "symbol",
      "outputs": [
        {
          "internalType": "string",
          "name": "",
          "type": "string"
        }
      ],
      "stateMutability": "view",
      "type": "function"
    },
    {
      "inputs": [
        {
          "internalType": "uint256",
          "name": "tokenId",
          "type": "uint256"
        }
      ],
      "name": "tokenURI",
      "outputs": [
        {
          "internalType": "string",
          "name": "",
          "type": "string"
        }
      ],
      "stateMutability": "view",
      "type": "function"
    },
    {
      "inputs": [
        {
          "internalType": "address",
          "name": "from",
          "type": "address"
        },
        {
          "internalType": "address",
          "name": "to",
          "type": "address"
        },
        {
          "internalType": "uint256",
          "name": "tokenId",
          "type": "uint256"
        }
      ],
      "name": "transferFrom",
      "outputs": [],
      "stateMutability": "nonpayable",
      "type": "function"
    },
    {
      "inputs": [
        {
          "internalType": "uint256",
          "name": "_listingPrice",
          "type": "uint256"
        }
      ],
      "name": "updateListingsPrice",
      "outputs": [],
      "stateMutability": "payable",
      "type": "function"
    }
  ],
  "bytecode": "0x60806040526605543df729c0006009553480156200001c57600080fd5b506040518060400160405280601381526020017f4e4654204d455441564552534520544f4b454e000000000000000000000000008152506040518060400160405280600581526020017f4d594e465400000000000000000000000000000000000000000000000000000081525081600090816200009a919062000355565b508060019081620000ac919062000355565b5050503373ffffffffffffffffffffffffffffffffffffffff16600a60009054906101000a905050506200043c565b600081519050919050565b7f4e487b7100000000000000000000000000000000000000000000000000000000600052604160045260246000fd5b7f4e487b7100000000000000000000000000000000000000000000000000000000600052602260045260246000fd5b600060028204905060018216806200015d57607f821691505b60208210810362000173576200017262000115565b5b50919050565b60008190508160005260206000209050919050565b60006020601f8301049050919050565b600082821b905092915050565b600060088302620001dd7fffffffffffffffffffffffffffffffffffffffffffffffffffffffffffffffff826200019e565b620001e986836200019e565b95508019841693508086168417925050509392505050565b6000819050919050565b6000819050919050565b600062000236620002306200022a8462000201565b6200020b565b62000201565b9050919050565b6000819050919050565b620002528362000215565b6200026a62000261826200023d565b848454620001ab565b825550505050565b600090565b6200028162000272565b6200028e81848462000247565b505050565b5b81811015620002b657620002aa60008262000277565b60018101905062000294565b5050565b601f8211156200030557620002cf8162000179565b620002da846200018e565b81016020851015620002ea578190505b62000302620002f9856200018e565b83018262000293565b50505b505050565b600082821c905092915050565b60006200032a600019846008026200030a565b1980831691505092915050565b600062000345838362000317565b9150826002028217905092915050565b6200036082620000db565b67ffffffffffffffff8111156200037c576200037b620000e6565b5b62000388825462000144565b62000395828285620002ba565b600060209050601f831160018114620003cd5760008415620003b8578287015190505b620003c4858262000337565b86555062000434565b601f198416620003dd8662000179565b60005b828110156200040757848901518255600182019150602085019450602081019050620003e0565b8683101562000427578489015162000423601f89168262000317565b8355505b6001600288020188555050505b505050505050565b6142d1806200044c6000396000f3fe60806040526004361061012a5760003560e01c806372b3b620116100ab578063b88d4fde1161006f578063b88d4fde146103ea578063be9af53614610413578063c18763f71461042f578063c87b56dd1461045a578063e219fc7514610497578063e985e9c5146104b35761012a565b806372b3b6201461031f5780638fafd0211461034f57806395d89b411461037a578063a22cb465146103a5578063a713eebf146103ce5761012a565b806323b872dd116100f257806323b872dd1461022857806342842e0e1461025157806345f8fa801461027a5780636352211e146102a557806370a08231146102e25761012a565b806301ffc9a71461012f57806306fdde031461016c578063081812fc14610197578063095ea7b3146101d457806312e85585146101fd575b600080fd5b34801561013b57600080fd5b5061015660048036038101906101519190612be1565b6104f0565b6040516101639190612c29565b60405180910390f35b34801561017857600080fd5b506101816105d2565b60405161018e9190612cd4565b60405180910390f35b3480156101a357600080fd5b506101be60048036038101906101b99190612d2c565b610664565b6040516101cb9190612d9a565b60405180910390f35b3480156101e057600080fd5b506101fb60048036038101906101f69190612de1565b6106aa565b005b34801561020957600080fd5b506102126107c1565b60405161021f9190612e30565b60405180910390f35b34801561023457600080fd5b5061024f600480360381019061024a9190612e4b565b6107cb565b005b34801561025d57600080fd5b5061027860048036038101906102739190612e4b565b61082b565b005b34801561028657600080fd5b5061028f61084b565b60405161029c9190612ff4565b60405180910390f35b3480156102b157600080fd5b506102cc60048036038101906102c79190612d2c565b610b37565b6040516102d99190612d9a565b60405180910390f35b3480156102ee57600080fd5b5061030960048036038101906103049190613016565b610bbd565b6040516103169190612e30565b60405180910390f35b61033960048036038101906103349190613178565b610c74565b6040516103469190612e30565b60405180910390f35b34801561035b57600080fd5b50610364610cb6565b6040516103719190612ff4565b60405180910390f35b34801561038657600080fd5b5061038f610f1e565b60405161039c9190612cd4565b60405180910390f35b3480156103b157600080fd5b506103cc60048036038101906103c79190613200565b610fb0565b005b6103e860048036038101906103e39190612d2c565b610fc6565b005b3480156103f657600080fd5b50610411600480360381019061040c91906132e1565b61102a565b005b61042d60048036038101906104289190612d2c565b61108c565b005b34801561043b57600080fd5b506104446112c4565b6040516104519190612ff4565b60405180910390f35b34801561046657600080fd5b50610481600480360381019061047c9190612d2c565b6115b0565b60405161048e9190612cd4565b60405180910390f35b6104b160048036038101906104ac9190613364565b6116c2565b005b3480156104bf57600080fd5b506104da60048036038101906104d591906133a4565b6118b7565b6040516104e79190612c29565b60405180910390f35b60007f80ac58cd000000000000000000000000000000000000000000000000000000007bffffffffffffffffffffffffffffffffffffffffffffffffffffffff1916827bffffffffffffffffffffffffffffffffffffffffffffffffffffffff191614806105bb57507f5b5e139f000000000000000000000000000000000000000000000000000000007bffffffffffffffffffffffffffffffffffffffffffffffffffffffff1916827bffffffffffffffffffffffffffffffffffffffffffffffffffffffff1916145b806105cb57506105ca8261194b565b5b9050919050565b6060600080546105e190613413565b80601f016020809104026020016040519081016040528092919081815260200182805461060d90613413565b801561065a5780601f1061062f5761010080835404028352916020019161065a565b820191906000526020600020905b81548152906001019060200180831161063d57829003601f168201915b5050505050905090565b600061066f826119b5565b6004600083815260200190815260200160002060009054906101000a900473ffffffffffffffffffffffffffffffffffffffff169050919050565b60006106b582610b37565b90508073ffffffffffffffffffffffffffffffffffffffff168373ffffffffffffffffffffffffffffffffffffffff1603610725576040517f08c379a000000000000000000000000000000000000000000000000000000000815260040161071c906134b6565b60405180910390fd5b8073ffffffffffffffffffffffffffffffffffffffff16610744611a00565b73ffffffffffffffffffffffffffffffffffffffff16148061077357506107728161076d611a00565b6118b7565b5b6107b2576040517f08c379a00000000000000000000000000000000000000000000000000000000081526004016107a990613548565b60405180910390fd5b6107bc8383611a08565b505050565b6000600954905090565b6107dc6107d6611a00565b82611ac1565b61081b576040517f08c379a0000000000000000000000000000000000000000000000000000000008152600401610812906135da565b60405180910390fd5b610826838383611b56565b505050565b6108468383836040518060200160405280600081525061102a565b505050565b606060006108596007611e4f565b905060008060005b83811015610901573373ffffffffffffffffffffffffffffffffffffffff16600b60006001846108919190613629565b815260200190815260200160002060010160009054906101000a900473ffffffffffffffffffffffffffffffffffffffff1673ffffffffffffffffffffffffffffffffffffffff16036108ee576001836108eb9190613629565b92505b80806108f99061365d565b915050610861565b5060008267ffffffffffffffff81111561091e5761091d61304d565b5b60405190808252806020026020018201604052801561095757816020015b610944612b18565b81526020019060019003908161093c5790505b50905060005b84811015610b2c573373ffffffffffffffffffffffffffffffffffffffff16600b600060018461098d9190613629565b815260200190815260200160002060010160009054906101000a900473ffffffffffffffffffffffffffffffffffffffff1673ffffffffffffffffffffffffffffffffffffffff1603610b195760006001826109e99190613629565b90506000600b60008381526020019081526020016000209050806040518060a0016040529081600082015481526020016001820160009054906101000a900473ffffffffffffffffffffffffffffffffffffffff1673ffffffffffffffffffffffffffffffffffffffff1673ffffffffffffffffffffffffffffffffffffffff1681526020016002820160009054906101000a900473ffffffffffffffffffffffffffffffffffffffff1673ffffffffffffffffffffffffffffffffffffffff1673ffffffffffffffffffffffffffffffffffffffff168152602001600382015481526020016004820160009054906101000a900460ff161515151581525050848681518110610afc57610afb6136a5565b5b6020026020010181905250600185610b149190613629565b945050505b8080610b249061365d565b91505061095d565b508094505050505090565b600080610b4383611e5d565b9050600073ffffffffffffffffffffffffffffffffffffffff168173ffffffffffffffffffffffffffffffffffffffff1603610bb4576040517f08c379a0000000000000000000000000000000000000000000000000000000008152600401610bab90613720565b60405180910390fd5b80915050919050565b60008073ffffffffffffffffffffffffffffffffffffffff168273ffffffffffffffffffffffffffffffffffffffff1603610c2d576040517f08c379a0000000000000000000000000000000000000000000000000000000008152600401610c24906137b2565b60405180910390fd5b600360008373ffffffffffffffffffffffffffffffffffffffff1673ffffffffffffffffffffffffffffffffffffffff168152602001908152602001600020549050919050565b6000610c806007611e9a565b6000610c8c6007611e4f565b9050610c983382611eb0565b610ca281856120cd565b610cac818461213a565b8091505092915050565b60606000610cc46007611e4f565b90506000610cd26008611e4f565b610cdc6007611e4f565b610ce691906137d2565b90506000808267ffffffffffffffff811115610d0557610d0461304d565b5b604051908082528060200260200182016040528015610d3e57816020015b610d2b612b18565b815260200190600190039081610d235790505b50905060005b84811015610f13573073ffffffffffffffffffffffffffffffffffffffff16600b6000600184610d749190613629565b815260200190815260200160002060020160009054906101000a900473ffffffffffffffffffffffffffffffffffffffff1673ffffffffffffffffffffffffffffffffffffffff1603610f00576000600182610dd09190613629565b90506000600b60008381526020019081526020016000209050806040518060a0016040529081600082015481526020016001820160009054906101000a900473ffffffffffffffffffffffffffffffffffffffff1673ffffffffffffffffffffffffffffffffffffffff1673ffffffffffffffffffffffffffffffffffffffff1681526020016002820160009054906101000a900473ffffffffffffffffffffffffffffffffffffffff1673ffffffffffffffffffffffffffffffffffffffff1673ffffffffffffffffffffffffffffffffffffffff168152602001600382015481526020016004820160009054906101000a900460ff161515151581525050848681518110610ee357610ee26136a5565b5b6020026020010181905250600185610efb9190613629565b945050505b8080610f0b9061365d565b915050610d44565b508094505050505090565b606060018054610f2d90613413565b80601f0160208091040260200160405190810160405280929190818152602001828054610f5990613413565b8015610fa65780601f10610f7b57610100808354040283529160200191610fa6565b820191906000526020600020905b815481529060010190602001808311610f8957829003601f168201915b5050505050905090565b610fc2610fbb611a00565b838361233d565b5050565b600a60009054906101000a900473ffffffffffffffffffffffffffffffffffffffff1673ffffffffffffffffffffffffffffffffffffffff163373ffffffffffffffffffffffffffffffffffffffff161461102057600080fd5b8060098190555050565b61103b611035611a00565b83611ac1565b61107a576040517f08c379a0000000000000000000000000000000000000000000000000000000008152600401611071906135da565b60405180910390fd5b611086848484846124a9565b50505050565b6000600b60008381526020019081526020016000206003015490508034146110e9576040517f08c379a00000000000000000000000000000000000000000000000000000000081526004016110e090613878565b60405180910390fd5b33600b600084815260200190815260200160002060020160006101000a81548173ffffffffffffffffffffffffffffffffffffffff021916908373ffffffffffffffffffffffffffffffffffffffff1602179055506001600b600084815260200190815260200160002060040160006101000a81548160ff0219169083151502179055506000600b600084815260200190815260200160002060020160006101000a81548173ffffffffffffffffffffffffffffffffffffffff021916908373ffffffffffffffffffffffffffffffffffffffff1602179055506111cd6008611e9a565b6111d8303384611b56565b600a60009054906101000a900473ffffffffffffffffffffffffffffffffffffffff1673ffffffffffffffffffffffffffffffffffffffff166108fc6009549081150290604051600060405180830381858888f19350505050158015611242573d6000803e3d6000fd5b50600b600083815260200190815260200160002060010160009054906101000a900473ffffffffffffffffffffffffffffffffffffffff1673ffffffffffffffffffffffffffffffffffffffff166108fc349081150290604051600060405180830381858888f193505050501580156112bf573d6000803e3d6000fd5b505050565b606060006112d26007611e4f565b905060008060005b8381101561137a573373ffffffffffffffffffffffffffffffffffffffff16600b600060018461130a9190613629565b815260200190815260200160002060020160009054906101000a900473ffffffffffffffffffffffffffffffffffffffff1673ffffffffffffffffffffffffffffffffffffffff1603611367576001836113649190613629565b92505b80806113729061365d565b9150506112da565b5060008267ffffffffffffffff8111156113975761139661304d565b5b6040519080825280602002602001820160405280156113d057816020015b6113bd612b18565b8152602001906001900390816113b55790505b50905060005b848110156115a5573373ffffffffffffffffffffffffffffffffffffffff16600b60006001846114069190613629565b815260200190815260200160002060020160009054906101000a900473ffffffffffffffffffffffffffffffffffffffff1673ffffffffffffffffffffffffffffffffffffffff16036115925760006001826114629190613629565b90506000600b60008381526020019081526020016000209050806040518060a0016040529081600082015481526020016001820160009054906101000a900473ffffffffffffffffffffffffffffffffffffffff1673ffffffffffffffffffffffffffffffffffffffff1673ffffffffffffffffffffffffffffffffffffffff1681526020016002820160009054906101000a900473ffffffffffffffffffffffffffffffffffffffff1673ffffffffffffffffffffffffffffffffffffffff1673ffffffffffffffffffffffffffffffffffffffff168152602001600382015481526020016004820160009054906101000a900460ff161515151581525050848681518110611575576115746136a5565b5b602002602001018190525060018561158d9190613629565b945050505b808061159d9061365d565b9150506113d6565b508094505050505090565b60606115bb826119b5565b60006006600084815260200190815260200160002080546115db90613413565b80601f016020809104026020016040519081016040528092919081815260200182805461160790613413565b80156116545780601f1061162957610100808354040283529160200191611654565b820191906000526020600020905b81548152906001019060200180831161163757829003601f168201915b505050505090506000611665612505565b9050600081510361167a5781925050506116bd565b6000825111156116af5780826040516020016116979291906138d4565b604051602081830303815290604052925050506116bd565b6116b88461251c565b925050505b919050565b3373ffffffffffffffffffffffffffffffffffffffff16600b600084815260200190815260200160002060020160009054906101000a900473ffffffffffffffffffffffffffffffffffffffff1673ffffffffffffffffffffffffffffffffffffffff1614611766576040517f08c379a000000000000000000000000000000000000000000000000000000000815260040161175d90613944565b60405180910390fd5b60095434146117aa576040517f08c379a00000000000000000000000000000000000000000000000000000000081526004016117a1906139d6565b60405180910390fd5b6000600b600084815260200190815260200160002060040160006101000a81548160ff02191690831515021790555080600b60008481526020019081526020016000206003018190555033600b600084815260200190815260200160002060010160006101000a81548173ffffffffffffffffffffffffffffffffffffffff021916908373ffffffffffffffffffffffffffffffffffffffff16021790555030600b600084815260200190815260200160002060020160006101000a81548173ffffffffffffffffffffffffffffffffffffffff021916908373ffffffffffffffffffffffffffffffffffffffff1602179055506118a86008612584565b6118b3333084611b56565b5050565b6000600560008473ffffffffffffffffffffffffffffffffffffffff1673ffffffffffffffffffffffffffffffffffffffff16815260200190815260200160002060008373ffffffffffffffffffffffffffffffffffffffff1673ffffffffffffffffffffffffffffffffffffffff16815260200190815260200160002060009054906101000a900460ff16905092915050565b60007f01ffc9a7000000000000000000000000000000000000000000000000000000007bffffffffffffffffffffffffffffffffffffffffffffffffffffffff1916827bffffffffffffffffffffffffffffffffffffffffffffffffffffffff1916149050919050565b6119be816125e0565b6119fd576040517f08c379a00000000000000000000000000000000000000000000000000000000081526004016119f490613720565b60405180910390fd5b50565b600033905090565b816004600083815260200190815260200160002060006101000a81548173ffffffffffffffffffffffffffffffffffffffff021916908373ffffffffffffffffffffffffffffffffffffffff160217905550808273ffffffffffffffffffffffffffffffffffffffff16611a7b83610b37565b73ffffffffffffffffffffffffffffffffffffffff167f8c5be1e5ebec7d5bd14f71427d1e84f3dd0314c0f7b2291e5b200ac8c7c3b92560405160405180910390a45050565b600080611acd83610b37565b90508073ffffffffffffffffffffffffffffffffffffffff168473ffffffffffffffffffffffffffffffffffffffff161480611b0f5750611b0e81856118b7565b5b80611b4d57508373ffffffffffffffffffffffffffffffffffffffff16611b3584610664565b73ffffffffffffffffffffffffffffffffffffffff16145b91505092915050565b8273ffffffffffffffffffffffffffffffffffffffff16611b7682610b37565b73ffffffffffffffffffffffffffffffffffffffff1614611bcc576040517f08c379a0000000000000000000000000000000000000000000000000000000008152600401611bc390613a68565b60405180910390fd5b600073ffffffffffffffffffffffffffffffffffffffff168273ffffffffffffffffffffffffffffffffffffffff1603611c3b576040517f08c379a0000000000000000000000000000000000000000000000000000000008152600401611c3290613afa565b60405180910390fd5b611c488383836001612621565b8273ffffffffffffffffffffffffffffffffffffffff16611c6882610b37565b73ffffffffffffffffffffffffffffffffffffffff1614611cbe576040517f08c379a0000000000000000000000000000000000000000000000000000000008152600401611cb590613a68565b60405180910390fd5b6004600082815260200190815260200160002060006101000a81549073ffffffffffffffffffffffffffffffffffffffff02191690556001600360008573ffffffffffffffffffffffffffffffffffffffff1673ffffffffffffffffffffffffffffffffffffffff168152602001908152602001600020600082825403925050819055506001600360008473ffffffffffffffffffffffffffffffffffffffff1673ffffffffffffffffffffffffffffffffffffffff16815260200190815260200160002060008282540192505081905550816002600083815260200190815260200160002060006101000a81548173ffffffffffffffffffffffffffffffffffffffff021916908373ffffffffffffffffffffffffffffffffffffffff160217905550808273ffffffffffffffffffffffffffffffffffffffff168473ffffffffffffffffffffffffffffffffffffffff167fddf252ad1be2c89b69c2b068fc378daa952ba7f163c4a11628f55a4df523b3ef60405160405180910390a4611e4a8383836001612747565b505050565b600081600001549050919050565b60006002600083815260200190815260200160002060009054906101000a900473ffffffffffffffffffffffffffffffffffffffff169050919050565b6001816000016000828254019250508190555050565b600073ffffffffffffffffffffffffffffffffffffffff168273ffffffffffffffffffffffffffffffffffffffff1603611f1f576040517f08c379a0000000000000000000000000000000000000000000000000000000008152600401611f1690613b66565b60405180910390fd5b611f28816125e0565b15611f68576040517f08c379a0000000000000000000000000000000000000000000000000000000008152600401611f5f90613bd2565b60405180910390fd5b611f76600083836001612621565b611f7f816125e0565b15611fbf576040517f08c379a0000000000000000000000000000000000000000000000000000000008152600401611fb690613bd2565b60405180910390fd5b6001600360008473ffffffffffffffffffffffffffffffffffffffff1673ffffffffffffffffffffffffffffffffffffffff16815260200190815260200160002060008282540192505081905550816002600083815260200190815260200160002060006101000a81548173ffffffffffffffffffffffffffffffffffffffff021916908373ffffffffffffffffffffffffffffffffffffffff160217905550808273ffffffffffffffffffffffffffffffffffffffff16600073ffffffffffffffffffffffffffffffffffffffff167fddf252ad1be2c89b69c2b068fc378daa952ba7f163c4a11628f55a4df523b3ef60405160405180910390a46120c9600083836001612747565b5050565b6120d6826125e0565b612115576040517f08c379a000000000000000000000000000000000000000000000000000000000815260040161210c90613c64565b60405180910390fd5b806006600084815260200190815260200160002090816121359190613e30565b505050565b6000811161217d576040517f08c379a000000000000000000000000000000000000000000000000000000000815260040161217490613f4e565b60405180910390fd5b60095434146121c1576040517f08c379a00000000000000000000000000000000000000000000000000000000081526004016121b890613fba565b60405180910390fd5b6040518060a001604052808381526020013373ffffffffffffffffffffffffffffffffffffffff1681526020013073ffffffffffffffffffffffffffffffffffffffff16815260200182815260200160001515815250600b60008481526020019081526020016000206000820151816000015560208201518160010160006101000a81548173ffffffffffffffffffffffffffffffffffffffff021916908373ffffffffffffffffffffffffffffffffffffffff16021790555060408201518160020160006101000a81548173ffffffffffffffffffffffffffffffffffffffff021916908373ffffffffffffffffffffffffffffffffffffffff1602179055506060820151816003015560808201518160040160006101000a81548160ff0219169083151502179055509050506122fa333084611b56565b817fdebdb32cb5230ab727c9c361b16fdb2015df225c10e6a3e7f60ecd5dc5be451633308460006040516123319493929190613fda565b60405180910390a25050565b8173ffffffffffffffffffffffffffffffffffffffff168373ffffffffffffffffffffffffffffffffffffffff16036123ab576040517f08c379a00000000000000000000000000000000000000000000000000000000081526004016123a29061406b565b60405180910390fd5b80600560008573ffffffffffffffffffffffffffffffffffffffff1673ffffffffffffffffffffffffffffffffffffffff16815260200190815260200160002060008473ffffffffffffffffffffffffffffffffffffffff1673ffffffffffffffffffffffffffffffffffffffff16815260200190815260200160002060006101000a81548160ff0219169083151502179055508173ffffffffffffffffffffffffffffffffffffffff168373ffffffffffffffffffffffffffffffffffffffff167f17307eab39ab6107e8899845ad3d59bd9653f200f220920489ca2b5937696c318360405161249c9190612c29565b60405180910390a3505050565b6124b4848484611b56565b6124c08484848461274d565b6124ff576040517f08c379a00000000000000000000000000000000000000000000000000000000081526004016124f6906140fd565b60405180910390fd5b50505050565b606060405180602001604052806000815250905090565b6060612527826119b5565b6000612531612505565b90506000815111612551576040518060200160405280600081525061257c565b8061255b846128d4565b60405160200161256c9291906138d4565b6040516020818303038152906040525b915050919050565b600081600001549050600081116125d0576040517f08c379a00000000000000000000000000000000000000000000000000000000081526004016125c790614169565b60405180910390fd5b6001810382600001819055505050565b60008073ffffffffffffffffffffffffffffffffffffffff1661260283611e5d565b73ffffffffffffffffffffffffffffffffffffffff1614159050919050565b600181111561274157600073ffffffffffffffffffffffffffffffffffffffff168473ffffffffffffffffffffffffffffffffffffffff16146126b55780600360008673ffffffffffffffffffffffffffffffffffffffff1673ffffffffffffffffffffffffffffffffffffffff16815260200190815260200160002060008282546126ad91906137d2565b925050819055505b600073ffffffffffffffffffffffffffffffffffffffff168373ffffffffffffffffffffffffffffffffffffffff16146127405780600360008573ffffffffffffffffffffffffffffffffffffffff1673ffffffffffffffffffffffffffffffffffffffff16815260200190815260200160002060008282546127389190613629565b925050819055505b5b50505050565b50505050565b600061276e8473ffffffffffffffffffffffffffffffffffffffff166129a2565b156128c7578373ffffffffffffffffffffffffffffffffffffffff1663150b7a02612797611a00565b8786866040518563ffffffff1660e01b81526004016127b994939291906141de565b6020604051808303816000875af19250505080156127f557506040513d601f19601f820116820180604052508101906127f2919061423f565b60015b612877573d8060008114612825576040519150601f19603f3d011682016040523d82523d6000602084013e61282a565b606091505b50600081510361286f576040517f08c379a0000000000000000000000000000000000000000000000000000000008152600401612866906140fd565b60405180910390fd5b805181602001fd5b63150b7a0260e01b7bffffffffffffffffffffffffffffffffffffffffffffffffffffffff1916817bffffffffffffffffffffffffffffffffffffffffffffffffffffffff1916149150506128cc565b600190505b949350505050565b6060600060016128e3846129c5565b01905060008167ffffffffffffffff8111156129025761290161304d565b5b6040519080825280601f01601f1916602001820160405280156129345781602001600182028036833780820191505090505b509050600082602001820190505b600115612997578080600190039150507f3031323334353637383961626364656600000000000000000000000000000000600a86061a8153600a858161298b5761298a61426c565b5b04945060008503612942575b819350505050919050565b6000808273ffffffffffffffffffffffffffffffffffffffff163b119050919050565b600080600090507a184f03e93ff9f4daa797ed6e38ed64bf6a1f0100000000000000008310612a23577a184f03e93ff9f4daa797ed6e38ed64bf6a1f0100000000000000008381612a1957612a1861426c565b5b0492506040810190505b6d04ee2d6d415b85acef81000000008310612a60576d04ee2d6d415b85acef81000000008381612a5657612a5561426c565b5b0492506020810190505b662386f26fc100008310612a8f57662386f26fc100008381612a8557612a8461426c565b5b0492506010810190505b6305f5e1008310612ab8576305f5e1008381612aae57612aad61426c565b5b0492506008810190505b6127108310612add576127108381612ad357612ad261426c565b5b0492506004810190505b60648310612b005760648381612af657612af561426c565b5b0492506002810190505b600a8310612b0f576001810190505b80915050919050565b6040518060a0016040528060008152602001600073ffffffffffffffffffffffffffffffffffffffff168152602001600073ffffffffffffffffffffffffffffffffffffffff168152602001600081526020016000151581525090565b6000604051905090565b600080fd5b600080fd5b60007fffffffff0000000000000000000000000000000000000000000000000000000082169050919050565b612bbe81612b89565b8114612bc957600080fd5b50565b600081359050612bdb81612bb5565b92915050565b600060208284031215612bf757612bf6612b7f565b5b6000612c0584828501612bcc565b91505092915050565b60008115159050919050565b612c2381612c0e565b82525050565b6000602082019050612c3e6000830184612c1a565b92915050565b600081519050919050565b600082825260208201905092915050565b60005b83811015612c7e578082015181840152602081019050612c63565b60008484015250505050565b6000601f19601f8301169050919050565b6000612ca682612c44565b612cb08185612c4f565b9350612cc0818560208601612c60565b612cc981612c8a565b840191505092915050565b60006020820190508181036000830152612cee8184612c9b565b905092915050565b6000819050919050565b612d0981612cf6565b8114612d1457600080fd5b50565b600081359050612d2681612d00565b92915050565b600060208284031215612d4257612d41612b7f565b5b6000612d5084828501612d17565b91505092915050565b600073ffffffffffffffffffffffffffffffffffffffff82169050919050565b6000612d8482612d59565b9050919050565b612d9481612d79565b82525050565b6000602082019050612daf6000830184612d8b565b92915050565b612dbe81612d79565b8114612dc957600080fd5b50565b600081359050612ddb81612db5565b92915050565b60008060408385031215612df857612df7612b7f565b5b6000612e0685828601612dcc565b9250506020612e1785828601612d17565b9150509250929050565b612e2a81612cf6565b82525050565b6000602082019050612e456000830184612e21565b92915050565b600080600060608486031215612e6457612e63612b7f565b5b6000612e7286828701612dcc565b9350506020612e8386828701612dcc565b9250506040612e9486828701612d17565b9150509250925092565b600081519050919050565b600082825260208201905092915050565b6000819050602082019050919050565b612ed381612cf6565b82525050565b6000612ee482612d59565b9050919050565b612ef481612ed9565b82525050565b612f0381612c0e565b82525050565b60a082016000820151612f1f6000850182612eca565b506020820151612f326020850182612eeb565b506040820151612f456040850182612eeb565b506060820151612f586060850182612eca565b506080820151612f6b6080850182612efa565b50505050565b6000612f7d8383612f09565b60a08301905092915050565b6000602082019050919050565b6000612fa182612e9e565b612fab8185612ea9565b9350612fb683612eba565b8060005b83811015612fe7578151612fce8882612f71565b9750612fd983612f89565b925050600181019050612fba565b5085935050505092915050565b6000602082019050818103600083015261300e8184612f96565b905092915050565b60006020828403121561302c5761302b612b7f565b5b600061303a84828501612dcc565b91505092915050565b600080fd5b600080fd5b7f4e487b7100000000000000000000000000000000000000000000000000000000600052604160045260246000fd5b61308582612c8a565b810181811067ffffffffffffffff821117156130a4576130a361304d565b5b80604052505050565b60006130b7612b75565b90506130c3828261307c565b919050565b600067ffffffffffffffff8211156130e3576130e261304d565b5b6130ec82612c8a565b9050602081019050919050565b82818337600083830152505050565b600061311b613116846130c8565b6130ad565b90508281526020810184848401111561313757613136613048565b5b6131428482856130f9565b509392505050565b600082601f83011261315f5761315e613043565b5b813561316f848260208601613108565b91505092915050565b6000806040838503121561318f5761318e612b7f565b5b600083013567ffffffffffffffff8111156131ad576131ac612b84565b5b6131b98582860161314a565b92505060206131ca85828601612d17565b9150509250929050565b6131dd81612c0e565b81146131e857600080fd5b50565b6000813590506131fa816131d4565b92915050565b6000806040838503121561321757613216612b7f565b5b600061322585828601612dcc565b9250506020613236858286016131eb565b9150509250929050565b600067ffffffffffffffff82111561325b5761325a61304d565b5b61326482612c8a565b9050602081019050919050565b600061328461327f84613240565b6130ad565b9050828152602081018484840111156132a05761329f613048565b5b6132ab8482856130f9565b509392505050565b600082601f8301126132c8576132c7613043565b5b81356132d8848260208601613271565b91505092915050565b600080600080608085870312156132fb576132fa612b7f565b5b600061330987828801612dcc565b945050602061331a87828801612dcc565b935050604061332b87828801612d17565b925050606085013567ffffffffffffffff81111561334c5761334b612b84565b5b613358878288016132b3565b91505092959194509250565b6000806040838503121561337b5761337a612b7f565b5b600061338985828601612d17565b925050602061339a85828601612d17565b9150509250929050565b600080604083850312156133bb576133ba612b7f565b5b60006133c985828601612dcc565b92505060206133da85828601612dcc565b9150509250929050565b7f4e487b7100000000000000000000000000000000000000000000000000000000600052602260045260246000fd5b6000600282049050600182168061342b57607f821691505b60208210810361343e5761343d6133e4565b5b50919050565b7f4552433732313a20617070726f76616c20746f2063757272656e74206f776e6560008201527f7200000000000000000000000000000000000000000000000000000000000000602082015250565b60006134a0602183612c4f565b91506134ab82613444565b604082019050919050565b600060208201905081810360008301526134cf81613493565b9050919050565b7f4552433732313a20617070726f76652063616c6c6572206973206e6f7420746f60008201527f6b656e206f776e6572206f7220617070726f76656420666f7220616c6c000000602082015250565b6000613532603d83612c4f565b915061353d826134d6565b604082019050919050565b6000602082019050818103600083015261356181613525565b9050919050565b7f4552433732313a2063616c6c6572206973206e6f7420746f6b656e206f776e6560008201527f72206f7220617070726f76656400000000000000000000000000000000000000602082015250565b60006135c4602d83612c4f565b91506135cf82613568565b604082019050919050565b600060208201905081810360008301526135f3816135b7565b9050919050565b7f4e487b7100000000000000000000000000000000000000000000000000000000600052601160045260246000fd5b600061363482612cf6565b915061363f83612cf6565b9250828201905080821115613657576136566135fa565b5b92915050565b600061366882612cf6565b91507fffffffffffffffffffffffffffffffffffffffffffffffffffffffffffffffff820361369a576136996135fa565b5b600182019050919050565b7f4e487b7100000000000000000000000000000000000000000000000000000000600052603260045260246000fd5b7f4552433732313a20696e76616c696420746f6b656e2049440000000000000000600082015250565b600061370a601883612c4f565b9150613715826136d4565b602082019050919050565b60006020820190508181036000830152613739816136fd565b9050919050565b7f4552433732313a2061646472657373207a65726f206973206e6f74206120766160008201527f6c6964206f776e65720000000000000000000000000000000000000000000000602082015250565b600061379c602983612c4f565b91506137a782613740565b604082019050919050565b600060208201905081810360008301526137cb8161378f565b9050919050565b60006137dd82612cf6565b91506137e883612cf6565b9250828203905081811115613800576137ff6135fa565b5b92915050565b7f5375626d69742041736b696e6720707269636520696e206f7264657220746f2060008201527f636f6d706c657465207075726368617365000000000000000000000000000000602082015250565b6000613862603183612c4f565b915061386d82613806565b604082019050919050565b6000602082019050818103600083015261389181613855565b9050919050565b600081905092915050565b60006138ae82612c44565b6138b88185613898565b93506138c8818560208601612c60565b80840191505092915050565b60006138e082856138a3565b91506138ec82846138a3565b91508190509392505050565b7f6f6e6c79204974656d204f6e7765722063616e20706572666f726d2074686973600082015250565b600061392e602083612c4f565b9150613939826138f8565b602082019050919050565b6000602082019050818103600083015261395d81613921565b9050919050565b7f5072696365206d73757420626520657175616c20746f206c697374696e67207060008201527f7269636500000000000000000000000000000000000000000000000000000000602082015250565b60006139c0602483612c4f565b91506139cb82613964565b604082019050919050565b600060208201905081810360008301526139ef816139b3565b9050919050565b7f4552433732313a207472616e736665722066726f6d20696e636f72726563742060008201527f6f776e6572000000000000000000000000000000000000000000000000000000602082015250565b6000613a52602583612c4f565b9150613a5d826139f6565b604082019050919050565b60006020820190508181036000830152613a8181613a45565b9050919050565b7f4552433732313a207472616e7366657220746f20746865207a65726f2061646460008201527f7265737300000000000000000000000000000000000000000000000000000000602082015250565b6000613ae4602483612c4f565b9150613aef82613a88565b604082019050919050565b60006020820190508181036000830152613b1381613ad7565b9050919050565b7f4552433732313a206d696e7420746f20746865207a65726f2061646472657373600082015250565b6000613b50602083612c4f565b9150613b5b82613b1a565b602082019050919050565b60006020820190508181036000830152613b7f81613b43565b9050919050565b7f4552433732313a20746f6b656e20616c7265616479206d696e74656400000000600082015250565b6000613bbc601c83612c4f565b9150613bc782613b86565b602082019050919050565b60006020820190508181036000830152613beb81613baf565b9050919050565b7f45524337323155524953746f726167653a2055524920736574206f66206e6f6e60008201527f6578697374656e7420746f6b656e000000000000000000000000000000000000602082015250565b6000613c4e602e83612c4f565b9150613c5982613bf2565b604082019050919050565b60006020820190508181036000830152613c7d81613c41565b9050919050565b60008190508160005260206000209050919050565b60006020601f8301049050919050565b600082821b905092915050565b600060088302613ce67fffffffffffffffffffffffffffffffffffffffffffffffffffffffffffffffff82613ca9565b613cf08683613ca9565b95508019841693508086168417925050509392505050565b6000819050919050565b6000613d2d613d28613d2384612cf6565b613d08565b612cf6565b9050919050565b6000819050919050565b613d4783613d12565b613d5b613d5382613d34565b848454613cb6565b825550505050565b600090565b613d70613d63565b613d7b818484613d3e565b505050565b5b81811015613d9f57613d94600082613d68565b600181019050613d81565b5050565b601f821115613de457613db581613c84565b613dbe84613c99565b81016020851015613dcd578190505b613de1613dd985613c99565b830182613d80565b50505b505050565b600082821c905092915050565b6000613e0760001984600802613de9565b1980831691505092915050565b6000613e208383613df6565b9150826002028217905092915050565b613e3982612c44565b67ffffffffffffffff811115613e5257613e5161304d565b5b613e5c8254613413565b613e67828285613da3565b600060209050601f831160018114613e9a5760008415613e88578287015190505b613e928582613e14565b865550613efa565b601f198416613ea886613c84565b60005b82811015613ed057848901518255600182019150602085019450602081019050613eab565b86831015613eed5784890151613ee9601f891682613df6565b8355505b6001600288020188555050505b505050505050565b7f5072696365206d7573742062652067726561746572207468616e203100000000600082015250565b6000613f38601c83612c4f565b9150613f4382613f02565b602082019050919050565b60006020820190508181036000830152613f6781613f2b565b9050919050565b7f5072696365206d75737420626520657175616c20746f204c697374696e670000600082015250565b6000613fa4601e83612c4f565b9150613faf82613f6e565b602082019050919050565b60006020820190508181036000830152613fd381613f97565b9050919050565b6000608082019050613fef6000830187612d8b565b613ffc6020830186612d8b565b6140096040830185612e21565b6140166060830184612c1a565b95945050505050565b7f4552433732313a20617070726f766520746f2063616c6c657200000000000000600082015250565b6000614055601983612c4f565b91506140608261401f565b602082019050919050565b6000602082019050818103600083015261408481614048565b9050919050565b7f4552433732313a207472616e7366657220746f206e6f6e20455243373231526560008201527f63656976657220696d706c656d656e7465720000000000000000000000000000602082015250565b60006140e7603283612c4f565b91506140f28261408b565b604082019050919050565b60006020820190508181036000830152614116816140da565b9050919050565b7f436f756e7465723a2064656372656d656e74206f766572666c6f770000000000600082015250565b6000614153601b83612c4f565b915061415e8261411d565b602082019050919050565b6000602082019050818103600083015261418281614146565b9050919050565b600081519050919050565b600082825260208201905092915050565b60006141b082614189565b6141ba8185614194565b93506141ca818560208601612c60565b6141d381612c8a565b840191505092915050565b60006080820190506141f36000830187612d8b565b6142006020830186612d8b565b61420d6040830185612e21565b818103606083015261421f81846141a5565b905095945050505050565b60008151905061423981612bb5565b92915050565b60006020828403121561425557614254612b7f565b5b60006142638482850161422a565b91505092915050565b7f4e487b7100000000000000000000000000000000000000000000000000000000600052601260045260246000fdfea26469706673582212209e21823ae306073b2eb6c3e9f17a2606bffcdaac29fbe9396e3ee4f783933d4864736f6c63430008110033",
  "linkReferences": {},
  "deployedLinkReferences": {}
}